{
  "transactions": [
    {
      "hash": "0x3abc41eb9d40d4bab60462f41538b53be445417e89b483e25657aceea481ab03",
      "transactionType": "CALL",
      "contractName": null,
      "contractAddress": "0x735d0aac0c3f3fa1d768c3d1baa83085957d6fd9",
      "function": "setSignatureRequired(bool)",
      "arguments": [
        "true"
      ],
      "transaction": {
        "from": "0xdba78ec19c5c9f5cc57741096e1d76de117a5f0d",
        "to": "0x735d0aac0c3f3fa1d768c3d1baa83085957d6fd9",
        "gas": "0xf816",
        "value": "0x0",
        "input": "0x99ffbe5f0000000000000000000000000000000000000000000000000000000000000001",
        "nonce": "0x39",
        "chainId": "0xaa36a7"
      },
      "additionalContracts": [],
      "isFixedGasLimit": false
    },
    {
      "hash": "0x4d5f114146ceea0ffc804be396073dff2527f7dd7cdadcae6a883e298fe02b68",
      "transactionType": "CALL",
      "contractName": null,
      "contractAddress": "0x735d0aac0c3f3fa1d768c3d1baa83085957d6fd9",
      "function": "setMaxGasCostPerOp(uint256)",
      "arguments": [
        "2000000000000000"
      ],
      "transaction": {
        "from": "0xdba78ec19c5c9f5cc57741096e1d76de117a5f0d",
        "to": "0x735d0aac0c3f3fa1d768c3d1baa83085957d6fd9",
        "gas": "0xa4ff",
        "value": "0x0",
        "input": "0xab75d6a600000000000000000000000000000000000000000000000000071afd498d0000",
        "nonce": "0x3a",
        "chainId": "0xaa36a7"
      },
      "additionalContracts": [],
      "isFixedGasLimit": false
    },
    {
      "hash": "0x8696911f92357e680e6a2df3e03bb6cf45c092def4b5cda39bd7c8111906c9fa",
      "transactionType": "CALL",
      "contractName": null,
      "contractAddress": "0x735d0aac0c3f3fa1d768c3d1baa83085957d6fd9",
      "function": "setMaxSponsorshipPerDay(uint256)",
      "arguments": [
        "10"
      ],
      "transaction": {
        "from": "0xdba78ec19c5c9f5cc57741096e1d76de117a5f0d",
        "to": "0x735d0aac0c3f3fa1d768c3d1baa83085957d6fd9",
        "gas": "0x9c66",
        "value": "0x0",
        "input": "0xc442f85b000000000000000000000000000000000000000000000000000000000000000a",
        "nonce": "0x3b",
        "chainId": "0xaa36a7"
      },
      "additionalContracts": [],
      "isFixedGasLimit": false
    }
  ],
  "receipts": [
    {
      "status": "0x1",
      "cumulativeGasUsed": "0x5d80f2",
      "logs": [],
      "logsBloom": "0x00000000000000000000000000000000000000000000000000000000000000000000000000000000000000000000000000000000000000000000000000000000000000000000000000000000000000000000000000000000000000000000000000000000000000000000000000000000000000000000000000000000000000000000000000000000000000000000000000000000000000000000000000000000000000000000000000000000000000000000000000000000000000000000000000000000000000000000000000000000000000000000000000000000000000000000000000000000000000000000000000000000000000000000000000000000",
      "type": "0x2",
      "transactionHash": "0x3abc41eb9d40d4bab60462f41538b53be445417e89b483e25657aceea481ab03",
      "transactionIndex": "0x26",
      "blockHash": "0x7b897124b22fa48210fee2145e2cd84760e41dc9338bb01dc2f9e9b6ed0b11b5",
      "blockNumber": "0x99ffcc",
      "gasUsed": "0xb39d",
      "effectiveGasPrice": "0x4219429f",
      "from": "0xdba78ec19c5c9f5cc57741096e1d76de117a5f0d",
      "to": "0x735d0aac0c3f3fa1d768c3d1baa83085957d6fd9",
      "contractAddress": null
    },
    {
      "status": "0x1",
      "cumulativeGasUsed": "0x5df1c4",
      "logs": [],
      "logsBloom": "0x00000000000000000000000000000000000000000000000000000000000000000000000000000000000000000000000000000000000000000000000000000000000000000000000000000000000000000000000000000000000000000000000000000000000000000000000000000000000000000000000000000000000000000000000000000000000000000000000000000000000000000000000000000000000000000000000000000000000000000000000000000000000000000000000000000000000000000000000000000000000000000000000000000000000000000000000000000000000000000000000000000000000000000000000000000000",
      "type": "0x2",
      "transactionHash": "0x4d5f114146ceea0ffc804be396073dff2527f7dd7cdadcae6a883e298fe02b68",
      "transactionIndex": "0x27",
      "blockHash": "0x7b897124b22fa48210fee2145e2cd84760e41dc9338bb01dc2f9e9b6ed0b11b5",
      "blockNumber": "0x99ffcc",
      "gasUsed": "0x70d2",
      "effectiveGasPrice": "0x4219429f",
      "from": "0xdba78ec19c5c9f5cc57741096e1d76de117a5f0d",
      "to": "0x735d0aac0c3f3fa1d768c3d1baa83085957d6fd9",
      "contractAddress": null
    },
    {
      "status": "0x1",
      "cumulativeGasUsed": "0x5e6300",
      "logs": [],
      "logsBloom": "0x00000000000000000000000000000000000000000000000000000000000000000000000000000000000000000000000000000000000000000000000000000000000000000000000000000000000000000000000000000000000000000000000000000000000000000000000000000000000000000000000000000000000000000000000000000000000000000000000000000000000000000000000000000000000000000000000000000000000000000000000000000000000000000000000000000000000000000000000000000000000000000000000000000000000000000000000000000000000000000000000000000000000000000000000000000000",
      "type": "0x2",
      "transactionHash": "0x8696911f92357e680e6a2df3e03bb6cf45c092def4b5cda39bd7c8111906c9fa",
      "transactionIndex": "0x28",
      "blockHash": "0x7b897124b22fa48210fee2145e2cd84760e41dc9338bb01dc2f9e9b6ed0b11b5",
      "blockNumber": "0x99ffcc",
      "gasUsed": "0x713c",
      "effectiveGasPrice": "0x4219429f",
      "from": "0xdba78ec19c5c9f5cc57741096e1d76de117a5f0d",
      "to": "0x735d0aac0c3f3fa1d768c3d1baa83085957d6fd9",
      "contractAddress": null
    }
  ],
  "libraries": [],
  "pending": [],
  "returns": {},
  "timestamp": 1769008562266,
  "chain": 11155111,
  "commit": "1882ff4"
}