{
  "transactions": [
    {
      "hash": "0xb628fac1f3b063b8479ccfd3e89c1d1e7195a9ce61a8d43ab6f1a7d7bfbbd435",
      "transactionType": "CALL",
      "contractName": null,
      "contractAddress": "0x4337084d9e255ff0702461cf8895ce9e3b5ff108",
      "function": "depositTo(address)",
      "arguments": [
        "0x15144d01a80aD8346c79A10d03d5638eA6Cf7F64"
      ],
      "transaction": {
        "from": "0xdba78ec19c5c9f5cc57741096e1d76de117a5f0d",
        "to": "0x4337084d9e255ff0702461cf8895ce9e3b5ff108",
        "gas": "0xf653",
        "value": "0x16345785d8a0000",
        "input": "0xb760faf900000000000000000000000015144d01a80ad8346c79a10d03d5638ea6cf7f64",
        "nonce": "0x62",
        "chainId": "0xaa36a7"
      },
      "additionalContracts": [],
      "isFixedGasLimit": false
    }
  ],
  "receipts": [
    {
      "status": "0x1",
      "cumulativeGasUsed": "0x3a173c",
      "logs": [
        {
          "address": "0x4337084d9e255ff0702461cf8895ce9e3b5ff108",
          "topics": [
            "0x2da466a7b24304f47e87fa2e1e5a81b9831ce54fec19055ce277ca2f39ba42c4",
            "0x00000000000000000000000015144d01a80ad8346c79a10d03d5638ea6cf7f64"
          ],
          "data": "0x000000000000000000000000000000000000000000000000016345785d8a0000",
          "blockHash": "0x3f5fa55bfa784b6c2f2fd8673953f14777c221521797f39c7114a604a263b10d",
          "blockNumber": "0x9acf52",
          "blockTimestamp": "0x697acd0c",
          "transactionHash": "0xb628fac1f3b063b8479ccfd3e89c1d1e7195a9ce61a8d43ab6f1a7d7bfbbd435",
          "transactionIndex": "0x24",
          "logIndex": "0x26",
          "removed": false
        }
      ],
      "logsBloom": "0x00000000000000000000000000000000000000000000000000000000000000000000000000000000000000000000000000000000000000000000000000000000000000000000000000000000000002000000000000000000000000000400200000000000000000002000000000000000000000000000000000000000000200000000000000000000000000000000000000000000000000000000000000000000000000000000000000000000000000000000000000000000000000000000000000000000000000000000000000000000000000000000200000000010000000000040000000000000000000000000000000000000000000000000000400000000",
      "type": "0x2",
      "transactionHash": "0xb628fac1f3b063b8479ccfd3e89c1d1e7195a9ce61a8d43ab6f1a7d7bfbbd435",
      "transactionIndex": "0x24",
      "blockHash": "0x3f5fa55bfa784b6c2f2fd8673953f14777c221521797f39c7114a604a263b10d",
      "blockNumber": "0x9acf52",
      "gasUsed": "0xb256",
      "effectiveGasPrice": "0x42069290",
      "from": "0xdba78ec19c5c9f5cc57741096e1d76de117a5f0d",
      "to": "0x4337084d9e255ff0702461cf8895ce9e3b5ff108",
      "contractAddress": null
    }
  ],
  "libraries": [],
  "pending": [],
  "returns": {},
  "timestamp": 1769655564798,
  "chain": 11155111,
  "commit": "f1dfe63"
}